{
  "contractName": "EthereumDice",
  "abi": [
    {
      "constant": true,
      "inputs": [],
      "name": "_players_count",
      "outputs": [
        {
          "name": "",
          "type": "uint256"
        }
      ],
      "payable": false,
      "stateMutability": "view",
      "type": "function"
    },
    {
      "constant": true,
      "inputs": [],
      "name": "_games_count",
      "outputs": [
        {
          "name": "",
          "type": "uint256"
        }
      ],
      "payable": false,
      "stateMutability": "view",
      "type": "function"
    },
    {
      "constant": true,
      "inputs": [
        {
          "name": "",
          "type": "address"
        }
      ],
      "name": "_players",
      "outputs": [
        {
          "name": "nickname",
          "type": "string"
        },
        {
          "name": "win_count",
          "type": "uint256"
        },
        {
          "name": "total_count",
          "type": "uint256"
        },
        {
          "name": "isVal",
          "type": "bool"
        }
      ],
      "payable": false,
      "stateMutability": "view",
      "type": "function"
    },
    {
      "constant": false,
      "inputs": [],
      "name": "Dice",
      "outputs": [],
      "payable": false,
      "stateMutability": "nonpayable",
      "type": "function"
    },
    {
      "constant": false,
      "inputs": [
        {
          "name": "player_nickname",
          "type": "string"
        }
      ],
      "name": "joinGame",
      "outputs": [],
      "payable": false,
      "stateMutability": "nonpayable",
      "type": "function"
    },
    {
      "constant": false,
      "inputs": [],
      "name": "bet",
      "outputs": [
        {
          "name": "",
          "type": "bool"
        }
      ],
      "payable": true,
      "stateMutability": "payable",
      "type": "function"
    },
    {
      "constant": true,
      "inputs": [],
      "name": "getWinningGames",
      "outputs": [
        {
          "name": "",
          "type": "uint256"
        }
      ],
      "payable": false,
      "stateMutability": "view",
      "type": "function"
    },
    {
      "constant": true,
      "inputs": [],
      "name": "getTotalGames",
      "outputs": [
        {
          "name": "",
          "type": "uint256"
        }
      ],
      "payable": false,
      "stateMutability": "view",
      "type": "function"
    }
  ],
  "bytecode": "0x6060604052600080556000600155341561001857600080fd5b610701806100276000396000f30060606040526004361061008e576000357c0100000000000000000000000000000000000000000000000000000000900463ffffffff16806311610c251461009357806336a8a0b0146100b55780633d536a2e146100de57806354b1335e1461013b578063594151e0146101645780635bd4349b14610179578063dfeec3de146101a2578063e39f0d64146101cb575b600080fd5b61009b6102b3565b604051808215151515815260200191505060405180910390f35b34156100c057600080fd5b6100c86103e6565b6040518082815260200191505060405180910390f35b34156100e957600080fd5b610139600480803590602001908201803590602001908080601f016020809104026020016040519081016040528093929190818152602001838380828437820191505050505050919050506103ec565b005b341561014657600080fd5b61014e610517565b6040518082815260200191505060405180910390f35b341561016f57600080fd5b61017761051d565b005b341561018457600080fd5b61018c610560565b6040518082815260200191505060405180910390f35b34156101ad57600080fd5b6101b56105aa565b6040518082815260200191505060405180910390f35b34156101d657600080fd5b610202600480803573ffffffffffffffffffffffffffffffffffffffff169060200190919050506105f4565b6040518080602001858152602001848152602001831515151581526020018281038252868181546001816001161561010002031660029004815260200191508054600181600116156101000203166002900480156102a15780601f10610276576101008083540402835291602001916102a1565b820191906000526020600020905b81548152906001019060200180831161028457829003601f168201915b50509550505050505060405180910390f35b60008060003391506103e86001430340600190048115156102d057fe5b06905060008081548092919060010191905055506102588111156103dc576001600360008473ffffffffffffffffffffffffffffffffffffffff1673ffffffffffffffffffffffffffffffffffffffff168152602001908152602001600020600101600082825401925050819055506001600360008473ffffffffffffffffffffffffffffffffffffffff1673ffffffffffffffffffffffffffffffffffffffff168152602001908152602001600020600201600082825401925050819055508173ffffffffffffffffffffffffffffffffffffffff166108fc600234029081150290604051600060405180830381858888f1935050505015156103d357600080fd5b600192506103e1565b600092505b505090565b60015481565b600360003373ffffffffffffffffffffffffffffffffffffffff1673ffffffffffffffffffffffffffffffffffffffff16815260200190815260200160002060030160009054906101000a900460ff1615151561044857600080fd5b608060405190810160405280828152602001600081526020016000815260200160011515815250600360003373ffffffffffffffffffffffffffffffffffffffff1673ffffffffffffffffffffffffffffffffffffffff16815260200190815260200160002060008201518160000190805190602001906104ca929190610630565b50602082015181600101556040820151816002015560608201518160030160006101000a81548160ff02191690831515021790555090505060016000815480929190600101919050555050565b60005481565b33600260006101000a81548173ffffffffffffffffffffffffffffffffffffffff021916908373ffffffffffffffffffffffffffffffffffffffff160217905550565b6000600360003373ffffffffffffffffffffffffffffffffffffffff1673ffffffffffffffffffffffffffffffffffffffff16815260200190815260200160002060020154905090565b6000600360003373ffffffffffffffffffffffffffffffffffffffff1673ffffffffffffffffffffffffffffffffffffffff16815260200190815260200160002060010154905090565b600360205280600052604060002060009150905080600001908060010154908060020154908060030160009054906101000a900460ff16905084565b828054600181600116156101000203166002900490600052602060002090601f016020900481019282601f1061067157805160ff191683800117855561069f565b8280016001018555821561069f579182015b8281111561069e578251825591602001919060010190610683565b5b5090506106ac91906106b0565b5090565b6106d291905b808211156106ce5760008160009055506001016106b6565b5090565b905600a165627a7a72305820a166d6c42192bac92a498600c7d00a6818f8a80f4121cbb88b88e4f08f3be0060029",
  "source": "pragma solidity ^0.4.18;\n\ncontract EthereumDice {\n\n    uint constant _game_barier = 600;\n    uint constant _game_max = 1000;\n    uint constant _game_min = 0;\n    uint constant _multiplier = 2;\n\n    uint public _games_count = 0;\n    uint public _players_count = 0;\n\n    address private _owner;\n\n    struct Player {\n        string nickname;\n        uint win_count;\n        uint total_count;\n        bool isVal;\n    }\n    \n    mapping(address => Player) public _players;\n    \n    modifier onlyOwner {\n        require(_owner == msg.sender);\n        _;\n    }\n    \n    modifier onlyNewPlayer {\n        require(!_players[msg.sender].isVal);\n        _;\n    }\n    \n    modifier validBet(uint _bet_num) {\n        require(_bet_num >= _game_min);\n        require(_bet_num <= _game_max);\n        _;\n    }\n    \n    function Dice() public {\n        // starts new game!\n        _owner = msg.sender;\n    }\n\n    function joinGame(string player_nickname) public onlyNewPlayer {\n        _players[msg.sender] = Player({nickname: player_nickname, win_count: 0, total_count: 0, isVal: true});\n        _players_count++;\n    }\n    \n    // payable\n    function bet() public payable returns(bool) {\n        address p_addr = msg.sender;\n        uint random_number = uint(block.blockhash(block.number-1))%1000;\n        _games_count++;\n        if (random_number > _game_barier) {\n            _players[p_addr].win_count += 1;\n            _players[p_addr].total_count += 1;\n            p_addr.transfer(msg.value * _multiplier);\n            return true;\n        } else {\n            //  Fires event that player no win =(\n            return false;\n        }\n    }\n\n    function getWinningGames() public constant returns(uint) {\n        return _players[msg.sender].win_count;\n    }\n\n    function getTotalGames() public constant returns(uint) {\n        return _players[msg.sender].total_count;\n    }\n    \n    // external as it consume too many gas\n    // warn: Gas requirement of function Dice._players(address) high: infinite. If the gas requirement of a function is higher than the block gas limit, it cannot be executed. Please avoid loops in your functions or actions that modify large areas of storage (this includes clearing or copying arrays in storage)\n    // function finishGame() external payable onlyOwner {\n    //     uint random_number = uint(block.blockhash(block.number-1))%1000;\n    //     address pl_addr;\n    //     for(uint i = 0; i < _players_list.length; i++) {\n    //         if (random_number < 500) {\n    //             pl_addr = _players_list[i];\n    //             pl_addr.transfer( _players[pl_addr].deposit * _multiplier);\n    //         }\n    //         delete _players[pl_addr];\n    //     }\n    //     delete _players_list;\n    // }\n}\n",
  "sourcePath": "/Users/rvarnava/work/react/v_dice/contracts/EtereumDice.sol",
  "compiler": {
    "name": "solc",
    "version": "0.4.19+commit.c4cbbb05.Emscripten.clang"
  },
  "schemaVersion": "2.0.0",
  "updatedAt": "2018-03-22T13:32:06.129Z"
}